S01E0000456D6265646465642D5F547261666669635F53616D792E73726563B8
S11300000C942A000C94EE030C9447000C944700C3
S11300100C9447000C9447000C9447000C94470040
S11300200C9447000C9447000C9447000C94470030
S11300300C9447000C9447000C9447000C94470020
S11300400C9447000C9447000C9447000C94470010
S11300500C94470011241FBECFE5D8E0DEBFCDBF0E
S113006010E0A0E6B0E0E0EFFDE002C005900D92E4
S1130070AE36B107D9F720E0AEE6B0E001C01D927C
S1130080AD37B207E1F70E9404040C94F6060C9411
S11300900000613039F138F0623009F442C0633055
S11300A009F45EC00895413069F44AB321E030E0B8
S11300B0B90102C0660F771F8A95E2F7CB01842B42
S11300C08ABB089541116AC04AB321E030E0B90106
S11300D002C0660F771F8A95E2F7CB0180958423CF
S11300E08ABB0895413069F447B321E030E0B90197
S11300F002C0660F771F8A95E2F7CB01842B87BB7A
S1130100089541114BC047B321E030E0B90102C06A
S1130110660F771F8A95E2F7CB018095842387BB0E
S11301200895413069F444B321E030E0B90102C0DC
S1130130660F771F8A95E2F7CB01842B84BB089561
S113014041112CC044B321E030E0B90102C0660F74
S1130150771F8A95E2F7CB018095842384BB0895A9
S1130160413069F441B321E030E0B90102C0660FC7
S1130170771F8A95E2F7CB01842B81BB0895411147
S11301800DC041B321E030E0B90102C0660F771F12
S11301908A95E2F7CB018095842381BB0895613071
S11301A039F138F0623009F442C0633009F45EC0BA
S11301B00895413069F44BB321E030E0B90102C045
S11301C0660F771F8A95E2F7CB01842B8BBB0895CA
S11301D041116AC04BB321E030E0B90102C0660F9F
S11301E0771F8A95E2F7CB01809584238BBB089512
S11301F0413069F448B321E030E0B90102C0660F30
S1130200771F8A95E2F7CB01842B88BB08954111AF
S11302104BC048B321E030E0B90102C0660F771F3C
S11302208A95E2F7CB018095842388BB08954130F9
S113023069F445B321E030E0B90102C0660F771FCD
S11302408A95E2F7CB01842B85BB089541112CC01C
S113025045B321E030E0B90102C0660F771F8A95EB
S1130260E2F7CB018095842385BB0895413069F47E
S113027042B321E030E0B90102C0660F771F8A95CE
S1130280E2F7CB01842B82BB089541110DC042B328
S113029021E030E0B90102C0660F771F8A95E2F7CA
S11302A0CB018095842382BB0895613079F138F0C5
S11302B0623009F452C0633009F475C0089529B35B
S11302C061E070E0082E02C0660F771F0A94E2F71F
S11302D030E026233723082E02C0359527950A944B
S11302E0E2F7232B21F081E0FA018083089529B3FA
S11302F030E06223732302C0759567958A95E2F70F
S1130300672B09F075C0FA011082089526B361E0E5
S113031070E0082E02C0660F771F0A94E2F730E0FF
S113032026233723082E02C0359527950A94E2F731
S1130330232B21F081E0FA018083089526B330E075
S11303406223732302C0759567958A95E2F7672B3C
S113035009F04EC0FA011082089523B361E070E001
S1130360082E02C0660F771F0A94E2F730E02623B6
S11303703723082E02C0359527950A94E2F7232BDC
S113038021F081E0FA018083089523B330E06223F1
S1130390732302C0759567958A95E2F7672B41F53B
S11303A0FA011082089520B361E070E0082E02C0C3
S11303B0660F771F0A94E2F730E026233723082ECE
S11303C002C0359527950A94E2F7232B21F081E0AA
S11303D0FA018083089520B330E06223732302C0BE
S11303E0759567958A95E2F7672B11F4FA011082E7
S11303F008950F931F93CF93DF931F92CDB7DEB76A
S1130400182F062FAE014F5F5F4F0E94550189815F
S1130410811106C041E0602F812F0E94CF0007C0E8
S1130420813029F440E0602F812F0E94CF000F908B
S1130430DF91CF911F910F9108954F925F926F9228
S11304407F928F929F92AF92BF92CF92DF92EF9260
S1130450FF920F931F93CF93DF9300D000D000D06F
S1130460CDB7DEB7182F698369017A018EE0E0E623
S1130470F0E0AFE6B0E001900D928A95E1F720E05C
S113048030E0A901C701B6010E948B0418160CF0D4
S11304902BC1113049F00F2E812C912CF0E8AF2E96
S11304A0F3E4BF2EF02D08C00F2E812C912CF0E820
S11304B0AF2EF7E4BF2EF02D002319F0013061F0C8
S11304C015C020E034E244E759E4C701B6010E94B4
S11304D04A066B017C010AC020E030E04AE754E49C
S11304E0C701B6010E944A066B017C0129812330B1
S11304F009F46BC030F4222381F0223009F474C073
S113050007C03981343009F465C0353009F467C057
S113051081E090E09E838D8384C020E030E040E859
S113052054E4C701B6010E948B0418160CF061C094
S113053020E030E040E854E4C701B6010E944506DB
S113054018165CF420E030E040E256E4C701B6013E
S11305500E948B0418160CF051C020E030E040E2F9
S113056056E4C701B6010E94450618165CF420E063
S113057030E048EC57E4C701B6010E948B0418161A
S11305800CF041C020E030E048EC57E4C701B6016C
S11305900E944506181654F420E030E04AE759E476
S11305A0C701B6010E948B04181694F520E030E0D0
S11305B04AE759E4C701B6010E94450618166CF1D2
S11305C021E030E03E832D832CC080E490E09E83C4
S11305D08D8327C020E031E03E832D8322C080E05C
S11305E094E09E838D831DC028E030E03E832D83FC
S11305F018C081E090E09E838D8313C028E030E032
S11306003E832D830EC080E490E09E838D8309C0D9
S113061020E031E03E832D8304C080E094E09E839B
S11306208D832D813E81B90180E090E00E943105E7
S11306302B013C019B01AC01C501B4010E944A0697
S11306404B015C019B01AC01C701B6010E948B0404
S1130650181684F0A7019601C501B4010E941E0476
S1130660A30192010E9490040E94B706C12CD12CD0
S113067076012AC0A5019401C701B6010E9479053B
S113068069837A838B839C839B01AC01C701B60188
S11306900E941E04A50194010E94900420E030E011
S11306A040E85FE30E941F046B017C0129813A81C9
S11306B04B815C81C501B4010E941E04A301920117
S11306C00E9490040E94B70611110EC0EFE6F0E0FC
S11306D06083718382839383C482D582E682F782A6
S11306E08D819E819187808726960FB6F894DEBF10
S11306F00FBECDBFDF91CF911F910F91FF90EF906F
S1130700DF90CF90BF90AF909F908F907F906F902D
S11307105F904F900895CF93DF93CFE6D0E0688148
S113072079818A819B810E94020562BF88859985AF
S113073080349105B9F030F48130910559F008976F
S113074069F01CC0811521E0920781F08115944065
S113075089F014C083B7816083BF13C083B78260FC
S113076083BF0FC083B7836083BF0BC083B784602C
S113077083BF07C083B7856083BF03C083B781602D
S113078083BF08B600FEFDCF81E088BFCFE6D0E08E
S11307906A857B858C859D8520E030E040E85FE3B9
S11307A00E941F046A877B878C879D876A857B8567
S11307B08C859D852C813D814E815F810E948B04B7
S11307C08823FCF213BE1092790010927A001092E2
S11307D07B0010927C00DF91CF9108951F920F92BD
S11307E00FB60F9211248F9380916E00813019F40B
S11307F010926E0003C081E080936E008F910F9081
S11308000FBE0F901F90189541E061E083E00E94B5
S1130810490040E061E083E00E94CF0001E020E075
S113082030E048E453E460E080E00E941D020E944E
S11308308B0361E083E00E94F901F9CF5058BB2794
S1130840AA270E9436040C940B060E94FD0538F07A
S11308500E94040620F039F49F3F19F426F40C9406
S1130860FA050EF4E095E7FB0C94E605E92F0E94E7
S11308701C0658F3BA17620773078407950720F01C
S113088079F4A6F50C943E060EF4E0950B2EBA2FDF
S1130890A02D0B01B90190010C01CA01A001112482
S11308A0FF27591B99F0593F50F4503E68F11A162E
S11308B0F040A22F232F342F4427585FF3CF4695BF
S11308C037952795A795F0405395C9F77EF41F16E1
S11308D0BA0B620B730B840BBAF09150A1F0FF0FAB
S11308E0BB1F661F771F881FC2F70EC0BA0F621F97
S11308F0731F841F48F4879577956795B795F79587
S11309009E3F08F0B0CF9395880F08F09927EE0F1B
S11309109795879508950E94C20508F481E008958B
S11309200E94A4040C940B060E94040658F00E9432
S1130930FD0540F029F45F3F29F00C94E6055111C0
S11309400C943F060C94FA050E941C0668F3992344
S1130950B1F3552391F3951B550BBB27AA276217B7
S11309607307840738F09F5F5F4F220F331F441FC4
S1130970AA1FA9F335D00E2E3AF0E0E832D09150F8
S11309805040E695001CCAF72BD0FE2F29D0660FE5
S1130990771F881FBB1F261737074807AB07B0E828
S11309A009F0BB0B802DBF01FF2793585F4F3AF02E
S11309B09E3F510578F00C94E6050C943F065F3F8A
S11309C0E4F3983ED4F3869577956795B795F795B4
S11309D09F5FC9F7880F911D9695879597F908959C
S11309E0E1E0660F771F881FBB1F62177307840738
S11309F0BA0720F0621B730B840BBA0BEE1F88F747
S1130A00E09508950E94240688F09F5798F0B92F26
S1130A109927B751B0F0E1F0660F771F881F991F2F
S1130A201AF0BA95C9F714C0B13091F00E943E068D
S1130A30B1E008950C943E06672F782F8827B85F9D
S1130A4039F0B93FCCF3869577956795B395D9F787
S1130A503EF490958095709561957F4F8F4F9F4F91
S1130A600895E89409C097FB3EF49095809570959D
S1130A7061957F4F8F4F9F4F9923A9F0F92F96E9E6
S1130A80BB279395F695879577956795B795F1115B
S1130A90F8CFFAF4BB0F11F460FF1BC06F5F7F4FF8
S1130AA08F4F9F4F16C0882311F096E911C077230A
S1130AB021F09EE8872F762F05C0662371F096E813
S1130AC0862F70E060E02AF09A95660F771F881FE2
S1130AD0DAF7880F9695879597F908950E94FD0592
S1130AE020F019F00E94040650F40C94FA050C94BA
S1130AF03F06E92F0E941C0688F35523B1F3E7FB58
S1130B006217730784079507A8F189F3E92FFF2774
S1130B1088232AF03197660F771F881FDAF7952FFD
S1130B205527442332F091505040220F331F441F65
S1130B30D2F7BB27E91BF50B621B730B840BB109BE
S1130B40B1F222F4620F731F841FB11D31972AF092
S1130B50660F771F881FBB1FEFCF9150504062F084
S1130B6041F0882332F0660F771F881F9150504060
S1130B70C1F793950C94EC058695779567959F5FDF
S1130B80D9F7F7CF990F0008550FAA0BE0E8FEEF4D
S1130B9016161706E807F907C0F012161306E4073D
S1130BA0F50798F0621B730B840B950B39F40A2636
S1130BB061F0232B242B252B21F408950A2609F414
S1130BC0A140A6958FEF811D811D089597F99F6718
S1130BD080E870E060E008959F3F31F0915020F488
S1130BE0879577956795B795880F911D9695879505
S1130BF097F908959FEF80EC089500240A9416163F
S1130C00170618060906089500240A9412161306F6
S1130C10140605060895092E0394000C11F4882384
S1130C2052F0BB0F40F4BF2B11F460FF04C06F5FA0
S1130C307F4F8F4F9F4F089557FD9058440F551F76
S1130C4059F05F3F71F04795880F97FB991F61F04A
S1130C509F3F79F087950895121613061406551FC1
S1130C60F2CF4695F1DF08C0161617061806991F2D
S1130C70F1CF86957105610508940895E894BB2722
S1130C8066277727CB0197F908950E94C20508F4D7
S1130C908FEF08950E945D060C940B060E94FD05DB
S1130CA038F00E94040620F0952311F00C94E60518
S1130CB00C94FA0511240C943F060E941C0670F350
S1130CC0959FC1F3950F50E0551F629FF001729FED
S1130CD0BB27F00DB11D639FAA27F00DB11DAA1FFC
S1130CE0649F6627B00DA11D661F829F2227B00D49
S1130CF0A11D621F739FB00DA11D621F839FA00DD4
S1130D00611D221F749F3327A00D611D231F849F23
S1130D10600D211D822F762F6A2F11249F5750407A
S1130D209AF0F1F088234AF0EE0FFF1FBB1F661FF5
S1130D30771F881F91505040A9F79E3F510580F0BE
S1130D400C94E6050C943F065F3FE4F3983ED4F31D
S1130D50869577956795B795F795E7959F5FC1F762
S1130D60FE2B880F911D9695879597F908950E94FB
S1130D702406E8F09E37E8F09639B8F49E3848F433
S1130D80672F782F8827985FF9CF86957795679591
S1130D9093959539D0F3B62FB1706B0F711D811DEA
S1130DA020F487957795679593950C94DB060C94BE
S1130DB0EC050C943F06882371F4772321F09850B6
S1130DC0872B762F07C0662311F499270DC0905105
S1130DD0862B70E060E02AF09A95660F771F881FD3
S1130DE0DAF7880F9695879597F90895F894FFCFC9
S1110DF00000000000000000000000000000F1
S9030000FC
