S01E0000456D6265646465642D5F547261666669635F53616D792E73726563B8
S11300000C9432000C9464010C944F000C944F0037
S11300100C944F000C948B010C944F000C944F00E3
S11300200C944F000C944F000C944F000C944F0010
S11300300C944F000C944F000C944F000C944F0000
S11300400C944F000C944F000C944F000C944F00F0
S11300500C944F00AC04A904100501050405070520
S11300600A050D0511241FBECFE5D8E0DEBFCDBFC4
S113007010E0A0E6B0E0EEEBF2E102C005900D92D4
S1130080AE36B107D9F720E0AEE6B0E001C01D926C
S1130090AF39B207E1F70E94EF010C945D090C94AB
S11300A0000060E082E00E94E80160E085E00E94D8
S11300B0E80160E080E00E9430030895EF920F931E
S11300C01F9360E081E00E94D90160E083E00E9418
S11300D0D90160E082E00E94D90160E084E00E94DE
S11300E0D90160E086E00E94D90160E085E00E94C9
S11300F0D90161E080E00E94D901789460E080E059
S11301000E946E0380E00E94DE03EE24E39400E08C
S113011010E42CE935E447E061E080E00E94F50357
S113012000E010E02AEF33E447E060E082E00E9460
S1130130F50381E48093700010926E0010927100B8
S11301401092730010926F000E9451001F910F9142
S1130150EF90089580917000813411F50E94510050
S113016060E081E00E94DD0160E086E00E94DD0144
S113017081E080936F000E94BD0510926F00809112
S11301807100813051F480917300813031F4109208
S1130190710082E880937000089582E88093700073
S11301A0089580917000823851F50E94510060E0FA
S11301B081E00E94DD0160E082E00E94E10160E0F4
S11301C086E00E94DD0160E085E00E94E10181E0BB
S11301D080936F000E94BD0510926F0080917100A2
S11301E0813051F480917300813031F410927100A8
S11301F081E480937000089584E1809370000895F1
S113020080917000843139F50E94510060E083E0F0
S11302100E94DD0160E084E00E94DD011092730021
S113022088B38E7F88BB81E080936F000E94BD05F8
S113023010926F0080917100813051F480917300AD
S1130240813031F41092710088E280937000089537
S113025088E280937000089580917000883251F58F
S11302600E94510060E083E00E94DD0160E082E0D2
S11302700E94E10160E084E00E94DD0160E085E02D
S11302800E94E10181E080936F000E94BD051092FD
S11302906F0080917100813051F48091730081303E
S11302A031F41092710081E480937000089581E428
S11302B08093700008950E94AA000E94D1000E94B9
S11302C000010E942C01F7CF1F920F920FB60F92DC
S11302D011248F9380917300811117C080916F0056
S11302E0882399F081E0809371008093730088B330
S11302F0816088BB80917000883239F080917000F1
S1130300813419F081E080936E008F910F900FBEBD
S11303100F901F9018951F920F920FB60F921124F1
S11303202F933F934F935F936F937F938F939F93F9
S1130330AF93BF93CF93DF93EF93FF93C1E9D0E0E3
S11303406A857B858C859D8520E030E040E85FE30D
S11303500E9480066A877B878C879D876A857B8558
S11303608C859D852C813D814E815F810E94A608EC
S1130370882364F09BB384E289278BBB10929B0093
S113038010929C0010929D0010929E00FF91EF919C
S1130390DF91CF91BF91AF919F918F917F916F9199
S11303A05F914F913F912F910F900FBE0F901F902F
S11303B0189541E00E94F601089541E00E949302DD
S11303C0089541E00E94930281E00E942906089565
S11303D040E00E94930280E00E94290608950E9452
S11303E05E000E945B0180E090E00895883008F090
S11303F08EC0613049F138F0623009F446C0633090
S113040009F464C086C0413071F44AB321E030E09D
S1130410B90102C0660F771F8A95E2F7CB01842BDE
S11304208ABB80E00895411176C04AB321E030E0F0
S1130430B90102C0660F771F8A95E2F7CB01809558
S113044084238ABB80E00895413071F447B321E0EE
S113045030E0B90102C0660F771F8A95E2F7CB013D
S1130460842B87BB80E00895411157C047B321E036
S113047030E0B90102C0660F771F8A95E2F7CB011D
S11304808095842387BB80E00895413071F444B3A0
S113049021E030E0B90102C0660F771F8A95E2F7C8
S11304A0CB01842B84BB80E00895411138C044B350
S11304B021E030E0B90102C0660F771F8A95E2F7A8
S11304C0CB018095842384BB80E00895413071F48E
S11304D041B321E030E0B90102C0660F771F8A956D
S11304E0E2F7CB01842B81BB80E00895411119C050
S11304F041B321E030E0B90102C0660F771F8A954D
S1130500E2F7CB018095842381BB80E0089581E0EC
S1130510089582E0089583E0089583E0089583E0D8
S1130520089583E00895883008F08EC0613049F161
S113053038F0623009F446C0633009F464C086C000
S1130540413071F44BB321E030E0B90102C0660FD1
S1130550771F8A95E2F7CB01842B8BBB80E008954B
S1130560411176C04BB321E030E0B90102C0660FFF
S1130570771F8A95E2F7CB01809584238BBB80E0BB
S11305800895413071F448B321E030E0B90102C06C
S1130590660F771F8A95E2F7CB01842B88BB80E036
S11305A00895411157C048B321E030E0B90102C0B9
S11305B0660F771F8A95E2F7CB018095842388BB69
S11305C080E00895413071F445B321E030E0B90191
S11305D002C0660F771F8A95E2F7CB01842B85BB97
S11305E082E00895411138C045B321E030E0B901FB
S11305F002C0660F771F8A95E2F7CB0180958423AA
S113060085BB80E00895413071F442B321E030E0CD
S1130610B90102C0660F771F8A95E2F7CB01842BDC
S113062082BB80E00895411119C042B321E030E05B
S1130630B90102C0660F771F8A95E2F7CB01809556
S1130640842382BB80E0089581E0089582E00895C8
S113065083E0089583E0089583E0089583E0089596
S1130660813089F028F08230C9F0833011F12CC038
S1130670613021F48FEF8BBB80E00895611126C0B7
S11306801BBA80E00895613021F48FEF8BBB80E0CA
S1130690089561111DC01BBA80E00895613021F4F2
S11306A08FEF8BBB80E00895611114C01BBA80E00A
S11306B00895613021F48FEF8BBB80E008956111C0
S11306C00BC01BBA80E0089582E0089583E008958A
S11306D083E0089583E0089583E00895813059F11B
S11306E020F0823009F44CC061C0611105C085B7A7
S11306F0836085BF80E00895613041F485B78E7FC3
S113070085BF85B7826085BF80E00895623041F47B
S113071085B7816085BF85B78D7F85BF80E00895EB
S1130720633009F045C085B78E7F85BF85B78D7F5F
S113073085BF80E00895611105C085B78C6085BFD1
S113074080E00895613041F485B78B7F85BF85B71C
S1130750886085BF80E00895623041F485B7846085
S113076085BF85B7877F85BF80E00895633011F525
S113077085B78B7F85BF85B7877F85BF80E0089568
S1130780611105C084B7806484BF80E0089561303E
S113079029F484B78F7B84BF80E00895625062306F
S11307A058F484B7806484BF80E0089580E008959D
S11307B081E0089581E0089581E00895813049F051
S11307C018F0823059F00FC08BB780648BBF80E083
S11307D008958BB780688BBF80E008958BB78062E3
S11307E08BBF80E0089581E008954F925F926F92ED
S11307F07F928F929F92AF92BF92CF92DF92EF92AD
S1130800FF920F931F93CF93DF9300D000D01F92DA
S1130810CDB7DEB78D836983742E4801590120E07A
S113082030E0A901C501B4010E94EC0618160CF0D1
S11308307FC12981222319F02130A1F025C08D81A7
S1130840813041F018F0823049F074C189B7816079
S113085089BF1AC089B7846089BF16C089B780640C
S113086089BF12C09D81913041F018F0923049F057
S113087063C189B78E7F89BF07C089B78B7F89BF62
S113088003C089B78F7B89BFAD81A13071F018F0A7
S1130890A230A9F053C18EE0E0E6F0E0A2E8B0E0B7
S11308A001900D928A95E1F713C08EE0E0E6F0E046
S11308B0A4E7B0E001900D928A95E1F709C08EE0BB
S11308C0E0E6F0E0A1E9B0E001900D928A95E1F74D
S11308D0BD81B13069F018F0B23009F031C180E067
S11308E090E0A0E8B3E489839A83AB83BC8308C017
S11308F080E090E0A0E8B7E489839A83AB83BC836B
S113090091E0E91689F0E91620F0A2E0EA16B1F0C8
S113091019C120E034E244E759E4C501B4010E945E
S1130920AB084B015C010AC020E030E04AE754E424
S1130930C501B4010E94AB084B015C01472D50E096
S11309404830510508F000C1FA01E65DFF4F0C94F0
S1130950570901E010E075C020E030E040E854E4BD
S1130960C501B4010E94EC0618160CF05CC020E02E
S113097030E040E854E4C501B4010E94A60818160A
S11309805CF420E030E040E256E4C501B4010E948A
S1130990EC0618160CF04AC020E030E040E256E4C1
S11309A0C501B4010E94A608181654F420E030E0F2
S11309B048EC57E4C501B4010E94EC061816CCF5C6
S11309C020E030E048EC57E4C501B4010E94A608D9
S11309D0181654F420E030E04AE759E4C501B401A4
S11309E00E94EC06181644F520E030E04AE759E48A
S11309F0C501B4010E94A60818160CF101E010E02C
S1130A0020C000E210E01DC000E410E01AC000E8BD
S1130A1010E017C000E011E014C000E014E011C0C1
S1130A2008E010E00EC001E010E00BC008E010E0A8
S1130A3008C000E410E005C000E011E002C000E0DE
S1130A4014E0B80180E090E00E9492072B013C0181
S1130A509B01AC0169817A818B819C810E94AB08E6
S1130A606B017C019B01AC01C501B4010E94EC0641
S1130A70181684F0A5019401C701B6010E947F06EF
S1130A80A30192010E94F1060E941809812C912C65
S1130A9054012AC0A7019601C501B4010E94DA07D6
S1130AA069837A838B839C839B01AC01C501B40168
S1130AB00E947F06A70196010E94F10620E030E023
S1130AC040E85FE30E9480064B015C0129813A8182
S1130AD04B815C81C701B6010E947F06A30192018C
S1130AE00E94F1060E941809BD81B13079F120F00D
S1130AF0B23081F081E02BC0E2E8F0E060837183E2
S1130B008283938384829582A682B7821187008729
S1130B1080E01DC0E1E9F0E0608371838283938308
S1130B2084829582A682B7821187008780E00FC0F5
S1130B3081E00DC081E00BC081E009C081E007C005
S1130B4081E005C081E003C081E001C080E00F9036
S1130B500F900F900F900F90DF91CF911F910F91F5
S1130B60FF90EF90DF90CF90BF90AF909F908F90C9
S1130B707F906F905F904F900895CF93DF93C2E87A
S1130B80D0E0688179818A819B810E94630762BF7A
S1130B908885998580349105B9F030F481309105C8
S1130BA059F0089769F051C0811521E0920781F04E
S1130BB08115944089F049C083B7816083BF0FC019
S1130BC083B7826083BF0BC083B7836083BF07C0D2
S1130BD083B7846083BF03C083B7856083BF08B6CF
S1130BE000FC04C080916E008823C9F381E088BFB3
S1130BF0C2E8D0E06A857B858C859D8520E030E065
S1130C0040E85FE30E9480066A877B878C879D8724
S1130C106A857B858C859D852C813D814E815F8194
S1130C200E94EC06882324F480916E008823B9F294
S1130C3010926E0013BE10928C0010928D001092D0
S1130C408E0010928F0080E001C081E0DF91CF918F
S1130C500895CF93DF93813009F047C0C1E9D0E014
S1130C60688179818A819B810E94630764BD88853C
S1130C7099858034910529F148F488309105B9F0BB
S1130C8080329105C9F00197A1F50CC0811521E0CE
S1130C90920709F1811524E0920711F1803891053A
S1130CA041F514C085B5816085BD80E025C085B55A
S1130CB0826085BD80E020C085B5836085BD80E00D
S1130CC01BC085B5846085BD80E016C085B5856090
S1130CD085BD80E011C085B5866085BD80E00CC00F
S1130CE085B5876085BD80E007C0811104C015BC4F
S1130CF003C081E001C080E0DF91CF910895505896
S1130D00BB27AA270E9497060C946C080E945E08D1
S1130D1038F00E94650820F039F49F3F19F426F456
S1130D200C945B080EF4E095E7FB0C944708E92F5C
S1130D300E947D0858F3BA17620773078407950762
S1130D4020F079F4A6F50C949F080EF4E0950B2E90
S1130D50BA2FA02D0B01B90190010C01CA01A00109
S1130D601124FF27591B99F0593F50F4503E68F164
S1130D701A16F040A22F232F342F4427585FF3CFA5
S1130D80469537952795A795F0405395C9F77EF476
S1130D901F16BA0B620B730B840BBAF09150A1F0BF
S1130DA0FF0FBB1F661F771F881FC2F70EC0BA0F45
S1130DB0621F731F841F48F4879577956795B795CD
S1130DC0F7959E3F08F0B0CF9395880F08F09927C8
S1130DD0EE0F9795879508950E94230808F481E003
S1130DE008950E9405070C946C080E94650858F049
S1130DF00E945E0840F029F45F3F29F00C944708F4
S1130E0051110C94A0080C945B080E947D0868F3AF
S1130E109923B1F3552391F3951B550BBB27AA27AF
S1130E2062177307840738F09F5F5F4F220F331FE9
S1130E30441FAA1FA9F335D00E2E3AF0E0E832D0B1
S1130E4091505040E695001CCAF72BD0FE2F29D0B4
S1130E50660F771F881FBB1F261737074807AB0786
S1130E60B0E809F0BB0B802DBF01FF2793585F4FFB
S1130E703AF09E3F510578F00C9447080C94A00872
S1130E805F3FE4F3983ED4F3869577956795B795DD
S1130E90F7959F5FC9F7880F911D9695879597F9E8
S1130EA00895E1E0660F771F881FBB1F6217730761
S1130EB08407BA0720F0621B730B840BBA0BEE1F76
S1130EC088F7E09508950E94850888F09F5798F068
S1130ED0B92F9927B751B0F0E1F0660F771F881F3B
S1130EE0991F1AF0BA95C9F714C0B13091F00E9455
S1130EF09F08B1E008950C949F08672F782F8827E6
S1130F00B85F39F0B93FCCF3869577956795B3957B
S1130F10D9F73EF490958095709561957F4F8F4FEA
S1130F209F4F0895E89409C097FB3EF490958095EF
S1130F30709561957F4F8F4F9F4F9923A9F0F92F9B
S1130F4096E9BB279395F695879577956795B79519
S1130F50F111F8CFFAF4BB0F11F460FF1BC06F5FFF
S1130F607F4F8F4F9F4F16C0882311F096E911C011
S1130F70772321F09EE8872F762F05C0662371F032
S1130F8096E8862F70E060E02AF09A95660F771F46
S1130F90881FDAF7880F9695879597F908950E9428
S1130FA05E0820F019F00E94650850F40C945B0868
S1130FB00C94A008E92F0E947D0888F35523B1F30F
S1130FC0E7FB6217730784079507A8F189F3E92FF4
S1130FD0FF2788232AF03197660F771F881FDAF7D7
S1130FE0952F5527442332F091505040220F331F40
S1130FF0441FD2F7BB27E91BF50B621B730B840B51
S1131000B109B1F222F4620F731F841FB11D31972D
S11310102AF0660F771F881FBB1FEFCF91505040F7
S113102062F041F0882332F0660F771F881F9150D9
S11310305040C1F793950C944D0886957795679524
S11310409F5FD9F7F7CF990F0008550FAA0BE0E877
S1131050FEEF16161706E807F907C0F01216130676
S1131060E407F50798F0621B730B840B950B39F4B6
S11310700A2661F0232B242B252B21F408950A261C
S113108009F4A140A6958FEF811D811D089597F95C
S11310909F6780E870E060E008959F3F31F09150D1
S11310A020F4879577956795B795880F911D969548
S11310B0879597F908959FEF80EC089500240A948A
S11310C01616170618060906089500240A9412161F
S11310D01306140605060895092E0394000C11F452
S11310E0882352F0BB0F40F4BF2B11F460FF04C0FF
S11310F06F5F7F4F8F4F9F4F089557FD9058440F58
S1131100551F59F05F3F71F04795880F97FB991F62
S113111061F09F3F79F0879508951216130614061F
S1131120551FF2CF4695F1DF08C0161617061806AC
S1131130991FF1CF86957105610508940895E89487
S1131140BB2766277727CB0197F908950E942308C8
S113115008F48FEF08950E94BE080C946C080E9456
S11311605E0838F00E94650820F0952311F00C9475
S113117047080C945B0811240C94A0080E947D0875
S113118070F3959FC1F3950F50E0551F629FF001D6
S1131190729FBB27F00DB11D639FAA27F00DB11DEF
S11311A0AA1F649F6627B00DA11D661F829F222778
S11311B0B00DA11D621F739FB00DA11D621F839FFF
S11311C0A00D611D221F749F3327A00D611D231FD5
S11311D0849F600D211D822F762F6A2F11249F5723
S11311E050409AF0F1F088234AF0EE0FFF1FBB1F26
S11311F0661F771F881F91505040A9F79E3F5105E5
S113120080F00C9447080C94A0085F3FE4F3983EE8
S1131210D4F3869577956795B795F795E7959F5F8E
S1131220C1F7FE2B880F911D9695879597F9089520
S11312300E948508E8F09E37E8F09639B8F49E38A5
S113124048F4672F782F8827985FF9CF869577958C
S1131250679593959539D0F3B62FB1706B0F711DC7
S1131260811D20F487957795679593950C943C0997
S11312700C944D080C94A008882371F4772321F072
S11312809850872B762F07C0662311F499270DC039
S11312909051862B70E060E02AF09A95660F771FD4
S11312A0881FDAF7880F9695879597F90895EE0FBA
S11112B0FF1F0590F491E02D0994F894FFCFF0
S11112BE00000000000000000000000000001E
S9030000FC
