S01E0000456D6265646465642D5F547261666669635F53616D792E73726563B8
S11300000C942A000C94CB000C943C000C943C00FF
S11300100C943C000C943C000C943C000C943C006C
S11300200C943C000C943C000C943C000C943C005C
S11300300C943C000C943C000C943C000C943C004C
S11300400C943C000C943C000C943C000C943C003C
S11300500C943C0011241FBECFE5D8E0DEBFCDBF19
S113006020E0A0E6B0E001C01D92A136B207E1F79E
S11300700E94AE000C94E1000C9400007894089562
S1130080813031F120F0823009F443C008956111C8
S113009004C085B7836085BF0895613039F485B79E
S11300A08E7F85BF85B7826085BF0895623039F43D
S11300B085B7816085BF85B78D7F85BF089563301F
S11300C0D1F585B78E7F85BF85B78D7F85BF0895B0
S11300D0611104C085B78C6085BF0895613039F41F
S11300E085B78B7F85BF85B7886085BF08956230EB
S11300F039F485B7846085BF85B7877F85BF089548
S11301006330C9F485B78B7F85BF85B7877F85BF8B
S11301100895611104C084B7806484BF0895613078
S113012021F484B78F7B84BF08956250623018F441
S113013084B7806484BF0895813041F018F0823020
S113014049F008958BB780648BBF08958BB780689E
S11301508BBF08958BB780628BBF08950E943E00C9
S113016061E080E00E94400080E00E949C008AB32D
S113017084608ABB81B38B7F81BB809160008823BC
S113018031F08130D1F78BB384608BBBF6CF8BB366
S11301908B7F8BBBF2CF1F920F920FB60F9211245D
S11301A08F9380916000813019F41092600003C035
S11301B081E0809360008F910F900FBE0F901F908D
S10901C01895F894FFCF2E
S9030000FC
