S01E0000456D6265646465642D5F547261666669635F53616D792E73726563B8
S11300000C9432000C9464010C944F000C944F0037
S11300100C944F000C948B010C944F000C944F00E3
S11300200C944F000C944F000C944F000C944F0010
S11300300C944F000C944F000C944F000C944F0000
S11300400C944F000C944F000C944F000C944F00F0
S11300500C944F004B044804AF04A004A304A6046A
S1130060A904AC0411241FBECFE5D8E0DEBFCDBF88
S113007010E0A0E6B0E0E4ECF1E102C005900D92DE
S1130080AE36B107D9F720E0AEE6B0E001C01D926C
S1130090AF39B207E1F70E94EF010C94E0080C9429
S11300A0000060E082E00E94E80160E085E00E94D8
S11300B0E80160E080E00E9402030895EF920F934C
S11300C01F9360E081E00E94D90160E083E00E9418
S11300D0D90160E082E00E94D90160E084E00E94DE
S11300E0D90160E086E00E94D90160E085E00E94C9
S11300F0D90161E080E00E94D901789460E080E059
S11301000E942E0380E00E948A03EE24E39400E020
S113011010E42CE935E447E061E080E00E949C03B0
S113012000E010E02AEF33E447E060E082E00E9460
S11301309C0381E48093700010926E001092710011
S11301401092730010926F000E9451001F910F9142
S1130150EF90089580917000813411F50E94510050
S113016060E081E00E94DD0160E086E00E94DD0144
S113017081E080936F000E94460510926F00809189
S11301807100813051F480917300813031F4109208
S1130190710082E880937000089582E88093700073
S11301A0089580917000823851F50E94510060E0FA
S11301B081E00E94DD0160E082E00E94E10160E0F4
S11301C086E00E94DD0160E085E00E94E10181E0BB
S11301D080936F000E94460510926F008091710019
S11301E0813051F480917300813031F410927100A8
S11301F081E480937000089584E1809370000895F1
S113020080917000843139F50E94510060E083E0F0
S11302100E94DD0160E084E00E94DD011092730021
S113022088B38E7F88BB81E080936F000E9446056F
S113023010926F0080917100813051F480917300AD
S1130240813031F41092710088E280937000089537
S113025088E280937000089580917000883251F58F
S11302600E94510060E083E00E94DD0160E082E0D2
S11302700E94E10160E084E00E94DD0160E085E02D
S11302800E94E10181E080936F000E944605109274
S11302906F0080917100813051F48091730081303E
S11302A031F41092710081E480937000089581E428
S11302B08093700008950E94AA000E94D1000E94B9
S11302C000010E942C01F7CF1F920F920FB60F92DC
S11302D011248F9380917300811117C080916F0056
S11302E0882399F081E0809371008093730088B330
S11302F0816088BB80917000883239F080917000F1
S1130300813419F081E080936E008F910F900FBEBD
S11303100F901F9018951F920F920FB60F921124F1
S11303202F933F934F935F936F937F938F939F93F9
S1130330AF93BF93CF93DF93EF93FF93C1E9D0E0E3
S11303406A857B858C859D8520E030E040E85FE30D
S11303500E9403066A877B878C879D876A857B85D5
S11303608C859D852C813D814E815F810E94290869
S1130370882364F09BB384E289278BBB10929B0093
S113038010929C0010929D0010929E00FF91EF919C
S1130390DF91CF91BF91AF919F918F917F916F9199
S11303A05F914F913F912F910F900FBE0F901F902F
S11303B0189541E00E94F601089541E00E947C02F4
S11303C0089541E00E947C0281E00E94B3050895F3
S11303D040E00E947C0280E00E94B30508950E94E0
S11303E05E000E945B0180E090E00895613039F185
S11303F038F0623009F442C0633009F45EC00895F5
S1130400413069F44AB321E030E0B90102C0660F1B
S1130410771F8A95E2F7CB01842B8ABB089541119B
S11304206AC04AB321E030E0B90102C0660F771F09
S11304308A95E2F7CB01809584238ABB08954130E5
S113044069F447B321E030E0B90102C0660F771FB9
S11304508A95E2F7CB01842B87BB089541114BC0E9
S113046047B321E030E0B90102C0660F771F8A95D7
S1130470E2F7CB018095842387BB0895413069F46A
S113048044B321E030E0B90102C0660F771F8A95BA
S1130490E2F7CB01842B84BB089541112CC044B3F3
S11304A021E030E0B90102C0660F771F8A95E2F7B8
S11304B0CB018095842384BB0895413069F441B312
S11304C021E030E0B90102C0660F771F8A95E2F798
S11304D0CB01842B81BB089541110DC041B321E0B0
S11304E030E0B90102C0660F771F8A95E2F7CB01AD
S11304F08095842381BB0895613039F138F06230EE
S113050009F442C0633009F45EC00895413069F4CF
S11305104BB321E030E0B90102C0660F771F8A9522
S1130520E2F7CB01842B8BBB089541116AC04BB316
S113053021E030E0B90102C0660F771F8A95E2F727
S1130540CB01809584238BBB0895413069F448B373
S113055021E030E0B90102C0660F771F8A95E2F707
S1130560CB01842B88BB089541114BC048B321E0D3
S113057030E0B90102C0660F771F8A95E2F7CB011C
S11305808095842388BB0895413069F445B321E004
S113059030E0B90102C0660F771F8A95E2F7CB01FC
S11305A0842B85BB089541112CC045B321E030E074
S11305B0B90102C0660F771F8A95E2F7CB018095D7
S11305C0842385BB0895413069F442B321E030E0CF
S11305D0B90102C0660F771F8A95E2F7CB01842B1D
S11305E082BB089541110DC042B321E030E0B9014E
S11305F002C0660F771F8A95E2F7CB0180958423AA
S113060082BB0895813079F028F08230A9F08330DC
S1130610E1F00895613019F48FEF8BBB08956111F7
S11306201CC01BBA0895613019F48FEF8BBB089579
S1130630611113C01BBA0895613019F48FEF8BBB9D
S1130640089561110AC01BBA0895613019F48FEF3F
S11306508BBB0895611101C01BBA0895813031F13B
S113066020F0823009F443C00895611104C085B7B5
S1130670836085BF0895613039F485B78E7F85BF67
S113068085B7826085BF0895623039F485B781608B
S113069085BF85B78D7F85BF08956330D1F585B754
S11306A08E7F85BF85B78D7F85BF0895611104C096
S11306B085B78C6085BF0895613039F485B78B7F29
S11306C085BF85B7886085BF0895623039F485B7E2
S11306D0846085BF85B7877F85BF08956330C9F47B
S11306E085B78B7F85BF85B7877F85BF08956111E7
S11306F004C084B7806484BF0895613021F484B752
S11307008F7B84BF08956250623018F484B780648C
S113071084BF0895813041F018F0823049F0089583
S11307208BB780648BBF08958BB780688BBF0895A7
S11307308BB780628BBF08954F925F926F927F92C6
S11307408F929F92AF92BF92CF92DF92EF92FF92DD
S11307500F931F93CF93DF9300D000D01F92CDB798
S1130760DEB78D836983742E480159011E2D20E064
S113077030E0A901C501B4010E946F0618160CF0FF
S11307806FC12981222319F02130A1F025C08D8168
S1130790813041F018F0823049F01EC089B7816081
S11307A089BF1AC089B7846089BF16C089B78064BD
S11307B089BF12C02D81213041F018F0223049F058
S11307C00BC089B78E7F89BF07C089B78B7F89BF6C
S11307D003C089B78F7B89BF8D81813071F018F098
S11307E08230A9F01DC08EE0E0E6F0E0A2E8B0E0BF
S11307F001900D928A95E1F713C08EE0E0E6F0E0F7
S1130800A4E7B0E001900D928A95E1F709C08EE06B
S1130810E0E6F0E0A1E9B0E001900D928A95E1F7FD
S11308202D81213049F00F2EC12CD12CF0E8EF2E70
S1130830F3E4FF2EF02D08C00F2EC12CD12CF0E8CC
S1130840EF2EF7E4FF2EF02D112319F0113061F093
S113085015C020E034E244E759E4C501B4010E9424
S11308602E084B015C010AC020E030E04AE754E462
S1130870C501B4010E942E084B015C01472D50E0D4
S11308804830510528F4FA01E65DFF4F0C94DA086C
S113089001E010E075C020E030E040E854E4C50118
S11308A0B4010E946F0618160CF05CC020E030E022
S11308B040E854E4C501B4010E94290818165CF408
S11308C020E030E040E256E4C501B4010E946F0626
S11308D018160CF04AC020E030E040E256E4C501AE
S11308E0B4010E942908181654F420E030E048ECC2
S11308F057E4C501B4010E946F061816CCF520E038
S113090030E048EC57E4C501B4010E9429081816E8
S113091054F420E030E04AE759E4C501B4010E94F0
S11309206F06181644F520E030E04AE759E4C501A3
S1130930B4010E94290818160CF101E010E020C04F
S113094000E210E01DC000E410E01AC000E810E06E
S113095017C000E011E014C000E014E011C008E08A
S113096010E00EC001E010E00BC008E010E008C089
S113097000E410E005C000E011E002C000E014E073
S1130980B80180E090E00E9415072B013C019B0117
S1130990AC01C701B6010E942E086B017C019B01CA
S11309A0AC01C501B4010E946F06181684F0A501BC
S11309B09401C701B6010E940206A30192010E949C
S11309C074060E949B08812C912C54012AC0A70113
S11309D09601C501B4010E945D0769837A838B8304
S11309E09C839B01AC01C501B4010E940206A701CE
S11309F096010E94740620E030E040E85FE30E9424
S1130A0003064B015C0129813A814B815C81C7015A
S1130A10B6010E940206A30192010E9474060E947C
S1130A209B082D81222319F0223071F019C0E2E8CD
S1130A30F0E0608371838283938384829582A682AB
S1130A40B782118700870CC0E1E9F0E0608371830D
S1130A508283938384829582A682B78211870087DA
S1130A600F900F900F900F900F90DF91CF911F91E7
S1130A700F91FF90EF90DF90CF90BF90AF909F9039
S1130A808F907F906F905F904F900895CF93DF93F6
S1130A90C2E8D0E0688179818A819B810E94E60660
S1130AA062BF8885998580349105B9F030F481302E
S1130AB0910559F0089769F01CC0811521E092074F
S1130AC081F08115944089F014C083B7816083BF9D
S1130AD013C083B7826083BF0FC083B7836083BFB3
S1130AE00BC083B7846083BF07C083B7856083BFAF
S1130AF003C083B7816083BF08B600FC04C0809143
S1130B006E008823C9F381E088BFC2E8D0E06A851B
S1130B107B858C859D8520E030E040E85FE30E9482
S1130B2003066A877B878C879D876A857B858C858E
S1130B309D852C813D814E815F810E946F068823B3
S1130B4024F480916E008823B9F210926E0013BED3
S1130B5010928C0010928D0010928E0010928F00D3
S1130B60DF91CF910895CF93DF93813009F044C092
S1130B70C1E9D0E0688179818A819B810E94E6067F
S1130B8064BD888599858034910511F148F48830D5
S1130B909105B1F080329105B9F0019749F50CC087
S1130BA0811521E09207E1F0811524E09207E1F03C
S1130BB080389105E9F410C085B5816085BD1FC0FA
S1130BC085B5826085BD1BC085B5836085BD17C0B2
S1130BD085B5846085BD13C085B5856085BD0FC0AE
S1130BE085B5866085BD0BC085B5876085BD07C0AA
S1130BF085B5816085BD03C0811101C015BCDF913D
S1130C00CF9108955058BB27AA270E941A060C9426
S1130C10EF070E94E10738F00E94E80720F039F45A
S1130C209F3F19F426F40C94DE070EF4E095E7FBDD
S1130C300C94CA07E92F0E94000858F3BA176207F8
S1130C4073078407950720F079F4A6F50C9422081D
S1130C500EF4E0950B2EBA2FA02D0B01B9019001D3
S1130C600C01CA01A0011124FF27591B99F0593F17
S1130C7050F4503E68F11A16F040A22F232F342F5F
S1130C804427585FF3CF469537952795A795F040AD
S1130C905395C9F77EF41F16BA0B620B730B840BC2
S1130CA0BAF09150A1F0FF0FBB1F661F771F881F7A
S1130CB0C2F70EC0BA0F621F731F841F48F48795D2
S1130CC077956795B795F7959E3F08F0B0CF9395C4
S1130CD0880F08F09927EE0F9795879508950E943D
S1130CE0A60708F481E008950E9488060C94EF0793
S1130CF00E94E80758F00E94E10740F029F45F3FA2
S1130D0029F00C94CA0751110C9423080C94DE07A3
S1130D100E94000868F39923B1F3552391F3951BBE
S1130D20550BBB27AA2762177307840738F09F5F08
S1130D305F4F220F331F441FAA1FA9F335D00E2E75
S1130D403AF0E0E832D091505040E695001CCAF7E2
S1130D502BD0FE2F29D0660F771F881FBB1F2617A5
S1130D6037074807AB07B0E809F0BB0B802DBF017C
S1130D70FF2793585F4F3AF09E3F510578F00C944B
S1130D80CA070C9423085F3FE4F3983ED4F3869596
S1130D9077956795B795F7959F5FC9F7880F911D6C
S1130DA09695879597F90895E1E0660F771F881F58
S1130DB0BB1F621773078407BA0720F0621B730B0B
S1130DC0840BBA0BEE1F88F7E09508950E9408087B
S1130DD088F09F5798F0B92F9927B751B0F0E1F0F8
S1130DE0660F771F881F991F1AF0BA95C9F714C0A8
S1130DF0B13091F00E942208B1E008950C942208C9
S1130E00672F782F8827B85F39F0B93FCCF38695E0
S1130E1077956795B395D9F73EF49095809570953D
S1130E2061957F4F8F4F9F4F0895E89409C097FBBA
S1130E303EF490958095709561957F4F8F4F9F4FAD
S1130E409923A9F0F92F96E9BB279395F6958795F1
S1130E5077956795B795F111F8CFFAF4BB0F11F4B4
S1130E6060FF1BC06F5F7F4F8F4F9F4F16C088235B
S1130E7011F096E911C0772321F09EE8872F762F91
S1130E8005C0662371F096E8862F70E060E02AF0D2
S1130E909A95660F771F881FDAF7880F96958795BE
S1130EA097F908950E94E10720F019F00E94E807DD
S1130EB050F40C94DE070C942308E92F0E940008D8
S1130EC088F35523B1F3E7FB62177307840795078B
S1130ED0A8F189F3E92FFF2788232AF03197660FB9
S1130EE0771F881FDAF7952F5527442332F0915046
S1130EF05040220F331F441FD2F7BB27E91BF50BC9
S1130F00621B730B840BB109B1F222F4620F731FDD
S1130F10841FB11D31972AF0660F771F881FBB1FEE
S1130F20EFCF9150504062F041F0882332F0660FC9
S1130F30771F881F91505040C1F793950C94D007A8
S1130F408695779567959F5FD9F7F7CF990F000836
S1130F50550FAA0BE0E8FEEF16161706E807F90787
S1130F60C0F012161306E407F50798F0621B730B22
S1130F70840B950B39F40A2661F0232B242B252BA3
S1130F8021F408950A2609F4A140A6958FEF811D46
S1130F90811D089597F99F6780E870E060E00895E7
S1130FA09F3F31F0915020F4879577956795B795D9
S1130FB0880F911D9695879597F908959FEF80EC7A
S1130FC0089500240A9416161706180609060895AB
S1130FD000240A9412161306140605060895092E11
S1130FE00394000C11F4882352F0BB0F40F4BF2B80
S1130FF011F460FF04C06F5F7F4F8F4F9F4F0895C0
S113100057FD9058440F551F59F05F3F71F04795B5
S1131010880F97FB991F61F09F3F79F0879508959A
S1131020121613061406551FF2CF4695F1DF08C0B9
S1131030161617061806991FF1CF869571056105D6
S113104008940895E894BB2766277727CB0197F97E
S113105008950E94A60708F48FEF08950E9441089E
S11310600C94EF070E94E10738F00E94E80720F093
S1131070952311F00C94CA070C94DE0711240C94E8
S113108023080E94000870F3959FC1F3950F50E068
S1131090551F629FF001729FBB27F00DB11D639F26
S11310A0AA27F00DB11DAA1F649F6627B00DA11DCC
S11310B0661F829F2227B00DA11D621F739FB00D72
S11310C0A11D621F839FA00D611D221F749F3327E2
S11310D0A00D611D231F849F600D211D822F762F7B
S11310E06A2F11249F5750409AF0F1F088234AF058
S11310F0EE0FFF1FBB1F661F771F881F91505040C4
S1131100A9F79E3F510580F00C94CA070C9423085C
S11311105F3FE4F3983ED4F3869577956795B7954A
S1131120F795E7959F5FC1F7FE2B880F911D969564
S1131130879597F908950E940808E8F09E37E8F02B
S11311409639B8F49E3848F4672F782F8827985F2B
S1131150F9CF86957795679593959539D0F3B62F02
S1131160B1706B0F711D811D20F48795779567957C
S113117093950C94BF080C94D0070C9423088823EF
S113118071F4772321F09850872B762F07C06623BC
S113119011F499270DC09051862B70E060E02AF07D
S11311A09A95660F771F881FDAF7880F96958795AB
S11311B097F90895EE0FFF1F0590F491E02D09941F
S10711C0F894FFCFCD
S11111C4000000000000000000000000000019
S9030000FC
